:020000022000DC
:1070000000000220B5720200DD720200DF72020091
:10701000E1720200E3720200E5720200000000006B
:10702000000000000000000000000000E772020005
:10703000E972020000000000EB720200ED72020033
:10704000E9D70200EF72020071E10200315D030036
:10705000A95D0300EF720200D1DB0200EF720200B3
:10706000EF720200EF720200EF720200EF72020094
:10707000EF720200EF720200EF720200EF72020084
:10708000EF72020099A70200EF720200EF72020095
:10709000EF720200EF72020039560300EF72020035
:1070A000EF720200EF720200EF720200EF72020054
:1070B000EF720200EF72020000000000000000000A
:1070C000EF720200EF720200EF720200B15C030087
:1070D000EF720200EF720200EF720200EF72020024
:1070E000EF7202000000000000000000000000003D
:1070F00000000000EF72020000000000EF720200CA
:10710000000000000000000000000000000000007F
:10711000000000000000000000000000000000006F
:10712000000000000000000000000000000000005F
:10713000000000000000000000000000000000004F
:10714000000000000000000000000000000000003F
:10715000000000000000000000000000000000002F
:10716000000000000000000000000000000000001F
:10717000000000000000000000000000000000000F
:1071800000000000000000000000000000000000FF
:1071900000000000000000000000000000000000EF
:1071A00000000000000000000000000000000000DF
:1071B00000000000000000000000000000000000CF
:1071C00000000000000000000000000000000000BF
:1071D00000000000000000000000000000000000AF
:1071E000000000000000000000000000000000009F
:1071F000000000000000000000000000000000008F
:1072000010B5054C237833B9044B13B10448AFF3E0
:1072100000800123237010BDC02B0020000000005F
:10722000D8AD030008B5034B1BB103490348AFF3C6
:10723000008008BD00000000C42B0020D8AD030072
:10724000154B002B08BF134B9D46A3F5803A002138
:107250008B460F461348144A121A11F0E1F80F4BEF
:10726000002B00D098470E4B002B00D098470020F1
:10727000002104000D000D48002802D00C48AFF397
:10728000008011F08DF82000290008F079FA11F043
:1072900073F800BF0000080000000220000000009A
:1072A00000000000C02B002000470020000000006C
:1072B000000000000649074A074B9B1A03DD043B08
:1072C000C858D050FBDC06F0A9F8FFF7B9FF000062
:1072D00068AF0300E82A0020C02B0020FEE7FEE78D
:1072E000FEE7FEE7FEE7FEE7FEE7FEE7FEE7FEE776
:1072F000704700BF00B583B0044B0093044A40239D
:1073000000F036F803B05DF804FB00BF157302000F
:10731000E02B002002B32DE9F843114B114E8846B3
:10732000144643F0010903270025224608EB050116
:10733000002008F0BBFB03461D444FF47A40E41ADA
:1073400023B9337833B1C847013F06D001233370E6
:10735000002CEAD1BDE8F88370473770BDE8F883A8
:1073600070870300DC2B0020704700BF08F07CBC56
:10737000F0B595B00E46084614461D461A9F05F016
:10738000FBFE00233046082205A90A938DF82C3015
:107390000C93CDE908450D9705F052FFDDE9060293
:1073A0009DF814300292012103F003028A420390F7
:1073B0008DF8111028D0022A04D0304605F0E0FEE6
:1073C00015B0F0BDBDF81650C3F3C2038DF81030F0
:1073D000C5F389150827082D2C4628BF08243B46ED
:1073E00022460EA9304605F02BFF2D1B214608AB87
:1073F00002AA0EA8274400F0E3FF002DEBD130468F
:1074000005F0BEFE15B0F0BDBDF81470059DC7F3C4
:107410008312C3F3C2040EA93046920008238DF8EC
:107420001040C7F3831705F00BFFC5F3952508AB94
:107430003A4628460EA9009302AB00F049FF3046B9
:1074400005F09EFE15B0F0BD014B01221A70704789
:10745000642C0020704700BF00B583B0044B00933C
:10746000044A4023FFF784FF03B05DF804FB00BF2C
:1074700079740200242C002038B50E480E4D037894
:107480000E4CEB5C00252570D2B253B1043007F0EE
:10749000C5FB58B90A4B1B7813B12378002BFCD0DD
:1074A00038BD0C3007F0F2F80028F3D001F0C0FA34
:1074B000F0E700BFE82A00205C440020642C002094
:1074C000202C00202DE9704319481A4A0378D35C18
:1074D00088B02BB3043007F005FB174D0FCD6C4679
:1074E0000FC495E80F004FF0EB7684E80F004FF0E3
:1074F00006084FF0FF394FF0FF344FF0FF350C48CE
:10750000069600226946CDE90089CDE9024506F0DC
:10751000FDF848B9094B00221A7008B0BDE8708325
:107520000C3007F035F8D8E701F082FAF2E700BF37
:10753000E82A00205C44002084870300202C0020DF
:10754000F0B5154D0FCD89B06C460FC495E80F000E
:107550004FF0EB7C84E80F0006264FF0FF374FF02A
:10756000FF344FF0FF350D4A0D48CDF818C069467D
:10757000CDE90067CDE9024506F0C8F820B9094B0E
:1075800001221A7009B0F0BD01F052FA054B012238
:107590001A7009B0F0BD00BF84870300497402006F
:1075A000E82A0020202C002038B50A4DFFF7DEFE27
:1075B0000421284600F008FE074B01245C71FFF708
:1075C000BFFF05F11000042100F0FEFD034B5C71CC
:1075D00038BD00BF40AF0300FC2A0020042B002070
:1075E00038B50C4B0C48002400250022C3E90045A7
:1075F000FF21C3F81824996083F82024C3F81424C9
:1076000005F06EFD044610B9044805F08FFE2046D3
:1076100038BD00BF382D00205CAE0300EC870300AE
:1076200099B10E4B0E495B1ADB0815D030B400221D
:107630000C4D02E0013293420BD035F822408442D7
:10764000F8D151F8320030BC7047054951F830008C
:107650007047002030BC70471846704740AF0300A9
:1076600070AE0300C02B0020094B013903EBC000B2
:1076700003290BD8DFE801F0040208060420704754
:1076800002207047407970470079704700207047AA
:1076900070AE03002DE9F047954CD4E900239A42DF
:1076A00084B063D00023C4F81834BFF34F8FD4E9FB
:1076B000013503EA0501CA1C04EB820614F82220F6
:1076C000500719D52768327802F00302012A43D007
:1076D000022A03D17288023303EB921305EA0301F5
:1076E000D4F81804CA1C04EB820628B99F4239D981
:1076F00014F822205207E6D404EB81015A1CC96811
:1077000001912A4004EB820201F00301D268029247
:10771000022903F102062DD0012900F09580D4F84A
:1077200010543DB12B6828469B689847EB681D684C
:10773000002DF7D16F48704B7049C01AC008000483
:1077400040F0020000F0E0F8D4E90030C01A18BFA1
:10775000012004B0BDE8F08732880233C2F38312FF
:107760001344BBE7676004B0BDE8F087002004B0B5
:10777000BDE8F087BDF806306148C3F38919B9F157
:10778000500FC84628BF4FF0500868F38F1308F118
:107790000801ADF8063005F0A5FC07460028BED06C
:1077A00005F0EAFC0023082201A9384605F014FD83
:1077B00025EA06030133B8EB830F4FEA830A7DD92C
:1077C000BAF1000F00F08D8005EA06010331A8EB45
:1077D0000A0804EB81010823524638465FFA88F80C
:1077E00005F0FAFC474942460AF10803384605F01D
:1077F000F3FC09F1030906EB9906D4F81834002BC1
:107800006BD1D4F8105465B1EB685A7928463946E3
:10781000002A5ED02B681B689847EB681D68002D16
:10782000F2D1384605F0ACFC00230DF103008DF8D1
:10783000033002F021FED4F8183403B966609DF8D5
:10784000030002F03FFE7FE7BDF804302C48C3F38D
:107850008312062A28BF0622911C62F3891389002D
:10786000ADF8043005F03EFC074600283FF457AF62
:1078700005F082FC0023082201A9384605F0ACFC83
:10788000BDF8043013F4707FB7D04FF000083146D4
:1078900029404FEA88030331083304EB81010422B5
:1078A000384605F099FCBDF8043008F10108C3F32F
:1078B0008313434506F10106E9D89EE705EA060170
:1078C000033104EB810142460823384605F084FC6D
:1078D0008FE71D68002D97D1A3E7384605F050FCCF
:1078E00032E7084942460823384605F075FC80E730
:1078F000382D0020A0AE030070AE0300D487030033
:107900005CAE0300442D00202DE9F04F644C87B09D
:10791000002306460DF10B008DF80B30A568019190
:1079200002F0AAFDD4E9012327681A440132D21BD0
:10793000012A00F2858004F21C4804F5836A04F2EF
:1079400014491BE0BDF80E30C3F389130333090C4F
:107950000BEB930B4846009104F024FC009900289F
:107960003ED04046C4F804B004F0E0FBD4E9011373
:10797000226819440131891A012962D8012140463F
:1079800004F0D4FB504604F0FDFB484604F0FAFB3B
:10799000D4E9013C03EA0C02D11C04EB810014F889
:1079A00021E01EF0040F0EF0040129D104EB820245
:1079B000591CD268039201EA0C0104EB810102F028
:1079C0000302012AC96803F1020B32D0022AB9D09E
:1079D00000214846009104F0E5FB00990028C0D141
:1079E0004046C1E743880BEB93130CEA0302D11C1A
:1079F00004EB810014F8211001F004010029D5D016
:107A000090F800E00EF0030EBEF1010F0BD0BEF1B6
:107A1000020F03F1020B02F1030EE3D004EB8E0020
:107A20000029EDD1C2E702880233C2F38312134466
:107A3000DBE7BDF80C30C3F38313090C9B4489E7E3
:107A40003A4613400333023205219DF80B0044F8F7
:107A50002310226002F036FD0021124804F020FBC2
:107A600080F31000F1007B1C2B40019A01F03801DB
:107A70003D4004EB830341F001010004033540EA7B
:107A8000164641EA8221DE6044F8251094F820343D
:107A90001BB1FFF7FFFD0028FBD107B0BDE8F08F59
:107AA000382D0020543100202DE9F04F684C89B06A
:107AB000002307460DF11300CDE902128DF81330B3
:107AC000A56802F0D9FCD4E9012326681A440132E2
:107AD000921B022A00F2858004F21C4804F5836A96
:107AE00004F214491BE0BDF81630C3F389130333C5
:107AF000090C0BEB930B4846019104F053FB0199E1
:107B000000283ED04046C4F804B004F00FFBD4E98E
:107B10000113226819440131891A022962D801210E
:107B2000404604F003FB504604F02CFB484604F0AA
:107B300029FBD4E9013C03EA0C02D11C04EB8100CF
:107B400014F821E01EF0040F0EF0040129D104EB1B
:107B50008202591CD268059201EA0C0104EB8101F2
:107B600002F00302012AC96803F1020B32D0022A93
:107B7000B9D000214846019104F014FB0199002876
:107B8000C0D14046C1E743880BEB93130CEA0302D4
:107B9000D11C04EB810014F8211001F0040100292C
:107BA000D5D090F800E00EF0030EBEF1010F0BD01F
:107BB000BEF1020F03F1020B02F1030EE3D004EB5E
:107BC0008E000029EDD1C2E702880233C2F383128E
:107BD0001344DBE7BDF81430C3F38313090C9B4453
:107BE00089E7324613400333033245219DF81300E1
:107BF00044F82310226002F065FCB31C2B4004EB18
:107C00008303039A1348DA60002104F049FA80F3F1
:107C10001000F900731C2B40029A01F03801354026
:107C200004EB830341F041010004033540EA1747A8
:107C300041EA8221DF6044F8251094F820341BB11A
:107C4000FFF728FD0028FBD109B0BDE8F08F00BF89
:107C5000382D0020543100202DE9F04F6C4C89B0B4
:107C6000002607460DF11300CDE9011203938DF8AC
:107C70001360A56802F000FCD4E9012326681A44C9
:107C80000132921B032A00F2858004F21C4804F59D
:107C9000836A04F214491BE0BDF81630C3F389135C
:107CA0000333090C0BEB930B4846009104F07AFA6E
:107CB000009900283ED04046C4F804B004F036FADB
:107CC000D4E90113226819440131891A032962D8C1
:107CD0000121404604F02AFA504604F053FA48467F
:107CE00004F050FAD4E9013C03EA0C02D11C04EB85
:107CF000810014F821E01EF0040F0EF0040129D1D8
:107D000004EB8202591CD268059201EA0C0104EBD3
:107D1000810102F00302012AC96803F1020B32D08B
:107D2000022AB9D000214846009104F03BFA00999C
:107D30000028C0D14046C1E743880BEB93130CEAFF
:107D40000302D11C04EB810014F8211001F004019E
:107D50000029D5D090F800E00EF0030EBEF1010F1F
:107D60000BD0BEF1020F03F1020B02F1030EE3D0C0
:107D700004EB8E000029EDD1C2E702880233C2F382
:107D800083121344DBE7BDF81430C3F38313090CEB
:107D90009B4489E7324613400333043285219DF822
:107DA000130044F82310226002F08CFBB21C2A401E
:107DB000F31C2B4004EB820204EB830C029BD36088
:107DC0000021039B1348CCF80C3004F069F980F3D0
:107DD0001000F900731C2B40019A01F03801354066
:107DE00004EB830341F081010004033540EA1747A7
:107DF00041EA8221DF6044F8251094F820341BB159
:107E0000FFF748FC0028FBD109B0BDE8F08F00BFA8
:107E1000382D0020543100202DE9F04F6F4C89B0EF
:107E2000002607460DF11300CDE9011203938DF8EA
:107E30001360A56802F020FBD4E9012326681A44E8
:107E40000132921B042A00F2858004F21C4804F5DA
:107E5000836A04F214491BE0BDF81630C3F389139A
:107E60000333090C0BEB930B4846009104F09AF98D
:107E7000009900283ED04046C4F804B004F056F9FA
:107E8000D4E90113226819440131891A042962D8FE
:107E90000121404604F04AF9504604F073F948467F
:107EA00004F070F9D4E9013C03EA0C02D11C04EBA4
:107EB000810014F821E01EF0040F0EF0040129D116
:107EC00004EB8202591CD268059201EA0C0104EB12
:107ED000810102F00302012AC96803F1020B32D0CA
:107EE000022AB9D000214846009104F05BF90099BC
:107EF0000028C0D14046C1E743880BEB93130CEA3E
:107F00000302D11C04EB810014F8211001F00401DC
:107F10000029D5D090F800E00EF0030EBEF1010F5D
:107F20000BD0BEF1020F03F1020B02F1030EE3D0FE
:107F300004EB8E000029EDD1C2E702880233C2F3C0
:107F400083121344DBE7BDF81430C3F38313090C29
:107F50009B4489E73246134003330532C5219DF81F
:107F6000130044F82310226002F0ACFAB01C284041
:107F7000F21C331D2B402A4004EB800004EB8202EC
:107F800004EB830C029BC360039BD3600021129B14
:107F90001348CCF80C3004F083F880F31000F9009B
:107FA000731C2B40019A01F03801354004EB830328
:107FB00041F0C1010004033540EA174741EA82213C
:107FC000DF6044F8251094F820341BB1FFF762FB02
:107FD0000028FBD109B0BDE8F08F00BF382D00208C
:107FE000543100202DE9F04F754C89B0002607462A
:107FF0000DF11300CDE9011203938DF81360A5680C
:1080000002F03AFAD4E9012326681A440132921B9D
:10801000052A00F2858004F21C4804F5836A04F204
:1080200014491BE0BDF81630C3F389130333090C60
:108030000BEB930B4846009104F0B4F8009900282C
:108040003ED04046C4F804B004F070F8D4E90113FF
:10805000226819440131891A052962D80121404654
:1080600004F064F8504604F08DF8484604F08AF8AD
:10807000D4E9013C03EA0C02D11C04EB810014F8A2
:1080800021E01EF0040F0EF0040129D104EB82025E
:10809000591CD268059201EA0C0104EB810102F03F
:1080A0000302012AC96803F1020B32D0022AB9D0B7
:1080B00000214846009104F075F800990028C0D1CD
:1080C0004046C1E743880BEB93130CEA0302D11C33
:1080D00004EB810014F8211001F004010029D5D02F
:1080E00090F800E00EF0030EBEF1010F0BD0BEF1D0
:1080F000020F03F1020B02F1030EE3D004EB8E003A
:108100000029EDD1C2E702880233C2F3831213447F
:10811000DBE7BDF81430C3F38313090C9B4489E7F4
:10812000324613400333063240F205119DF8130026
:1081300044F82310226002F0C5F9B11C06F1030CCB
:1081400029400CEA050C321D731D2B402A4004EB1C
:10815000810104EB8C0C0298C86004EB820204EBF2
:10816000830E039BCCF80C30129BD3600021139B31
:108170001448CEF80C3003F093FF80F31000F900A0
:1081800001F03801731C2B40019A41F48071354095
:1081900004EB830341F001010004033540EA174773
:1081A00041EA8221DF6044F8251094F820341BB1A5
:1081B000FFF770FA0028FBD109B0BDE8F08F00BFCF
:1081C000382D00205431002030B4154DD5F810144E
:1081D0000446002071B10B4601E01B6853B1DB6817
:1081E0001A798242F9D101300A28F3D14FF0FF30D9
:1081F00030BC7047E3681871D5F810344BB1DA68B9
:10820000E36812681A60D5F81034DB681C6030BC73
:108210007047C5F81044E268136030BC704700BF77
:10822000382D002038B5094BD3F81044012583F8C8
:1082300020544CB1E3685D71236820465B68984721
:10824000E3681C68002CF5D138BD00BF382D002034
:1082500030B5C38885B004460D461BBB217A05297D
:108260001ED0627A82B9134AA08852F82120039264
:108270000021FFF7D5F9039A0F490346284605B0B8
:10828000BDE8304004F00AB8A088FFF7EDF90B4BC9
:108290000B4953F82020284604F000F8217AE2E741
:1082A00005B030BD074A00920749084A284603F046
:1082B000F5FFD3E7C0880300208803009C880300F3
:1082C000D89F03001888030000880300F887030084
:1082D0002DE9F04385B04FF0000C0C9C814694F8DA
:1082E0000C8084F80CC00E461746184621461D46E1
:1082F000FFF7AEFF062F09D8DFE807F0042E343B66
:10830000444F1F004946204603F0C8FF2B7A052B37
:1083100005D06B7A5BB92749204603F0BFFF2046A2
:1083200003F0B0FF84F80C8005B0BDE8F083224A6A
:108330002249204603F0B2FFEDE7D6E90413F268C4
:108340000393B3680291CDE900324946D6E9002390
:10835000204603F0A3FFD9E732684946204603F0E0
:108360009DFFD3E7D6E900234946204603F096FF58
:10837000CCE7B3680093D6E900234946204603F0D2
:108380008DFFC3E7D6E9023201920093D6E90023BC
:108390004946204603F082FFB8E7D6E90321B368D7
:1083A0000291CDE900324946D6E90023204603F088
:1083B00075FFABE72C88030018880300D89F0300E3
:1083C000082900D970472DE9F04F9B4683B000245F
:1083D0001B7B8BF80C400D460646594610469046CE
:1083E0000193DFF8D0902C4FFFF732FF05E0325DAC
:1083F000013403F053FF082C09D0A54239465846F2
:10840000F5D84946013403F049FF082CF5D123493A
:10841000DFF8A490224C234F584603F03FFF4FF063
:10842000000A0DE0D15D11F0970F08BF2E22214602
:1084300058460AF1010A03F031FFBAF1080F10D0D3
:10844000554505D916F80A207E2AEBD92E22EEE7EB
:10845000494658460AF1010A03F020FFBAF1080F15
:10846000EED198F80830052B02D098F8093063B99E
:108470000D49584603F012FF584603F003FF019BD5
:108480008BF80C3003B0BDE8F08F084A0849584615
:1084900003F004FFECE700BF308803003C880300D2
:1084A00040880300D1AC03002C8803001888030027
:1084B000D89F03003888030028880300074B1B5C03
:1084C0001F2B8ABF064A4FF0A04203F01F03D2F8C9
:1084D0000405D840C04300F001007047D88803006D
:1084E00000030050064B1A5C1F2A86BF054902F0A4
:1084F0001F024FF0A04101239340C1F80C35704793
:10850000D888030000030050064B1A5C1F2A86BF60
:10851000054902F01F024FF0A04101239340C1F82A
:1085200008357047D8880300000300504FF0A0437F
:1085300010B44FF480404FF400544FF400414FF416
:108540008032C3F80845C3F80805C3F80815C3F816
:1085500008255DF8044B70474FF0A04310B44FF46A
:1085600080404FF400544FF400414FF48032C3F880
:108570000C45C3F80C05C3F80C15C3F80C255DF8C1
:10858000044B70470A4B185C1F288ABF09494FF0FB
:10859000A04100F01F00D1F804350122824022EAF8
:1085A00003001340C1F80805C1F80C35704700BF3F
:1085B000D888030000030050074B1B5C1F2B8ABFA9
:1085C000064A4FF0A04203F01F03D2F81005D8402E
:1085D000C04300F001007047D4880300000300503E
:1085E0000B2809D00C2809D0182809D019280CBF4D
:1085F00003204FF0FF307047002070470120704784
:1086000002207047014B185C704700BFD4880300FC
:10861000C20730B40ED483070AD54FF0A0430C2212
:10862000C3F82C27C3F83027C3F86027C3F86427A2
:1086300030BC70474FF0A0430322C3F834274FF4F7
:108640000055C3F838274FF48044C3F83C274FF453
:108650000041C3F840274FF48032C3F80855C3F8EF
:108660000845C3F80815C3F80825D4E738B5174BF3
:108670001D783DB3164B1968C0B200230C4604E0C8
:108680000133AB4204F108041CD011F833209042AE
:10869000F6D105F08DFA6378A3F10103B3FA83F301
:1086A0005B09834200D038BD0A4BD3E90023134352
:1086B000F9D1094B094819680022BDE8384049083A
:1086C00001F072BE00231B78FFDE00BFF4310020F2
:1086D0004832002020320020F831002000320020F3
:1086E0002DE9F04FDFF8548298F8003083B0002B6A
:1086F00000F01981DFF848928C4F8D4E00254FF025
:10870000010A3C6814F8350005F052FA04EBC50381
:1087100014F835405B784FEA540C14F0010E16F84B
:108720000C10A3F10103B3FA83F314BF0A0901F09B
:108730000F025B09042A00F2A080DFE802F0725DFC
:1087400032200300834240F0AB80BEF1000F0CBF2B
:10875000F0230F2303EA01030CBF03213021194347
:1087600006F80C1098F8002001359542C9DBD9E9CC
:108770000023134340F0CD8003B0BDE8F08F834267
:108780007BD0BEF1000F0CBFF0230F2303EA0103DF
:108790000CBF04214021194306F80C1098F8002062
:1087A000E2E783426CD1BEF1000F0CBFF0230F2330
:1087B00003EA010398F800200CBF0321302119437C
:1087C00006F80C10002AD2D0D7F800C0002361466A
:1087D00003E0934201F10801C6D01CF83300A04227
:1087E00003F10103F5D14B68002BBDD020460121D8
:1087F000984798F80020B7E7834219BF0020034646
:1088000002232020BEF1000F0CBFF0220F2201EA4C
:10881000020118BF03460B4306F80C3098F80020FD
:10882000A2E7834229D1BEF1000F14BF0F23F0232A
:1088300003EA010314BF1021012119430DF10700C0
:108840004FF0000306F80C108DF8073001F014FE0D
:10885000D9E90032A4F12001C4F120000AFA01F1A3
:108860002AFA00F001430AFA04F4114323439DF865
:108870000700C9E9003101F025FE98F8002073E7F0
:10888000BEF1000F0CBFF0230F2303EA01030CBF5E
:1088900001211021194306F80C1098F8002063E715
:1088A000BEF1000F14BF0F23F02398F80000194009
:1088B00006F80C1098B1D7F800C00023624603E018
:1088C000834202F108020AD01CF83310A14203F1DE
:1088D0000103F5D1536813B10021204698474FF0AA
:1088E00000030DF107008DF8073001F0C5FDD9E94F
:1088F0000032A4F12001C4F120000AFA01F12AFAA1
:1089000000F001430AFA04F422EA010123EA040315
:10891000ADE7084B084819680022490801F044FDFA
:1089200003B0BDE8F08FDFF8189020E74832002050
:1089300028320020F831002000320020F4310020DD
:1089400020320020092A43D92DE9F04182B0144693
:1089500006460D4604F0C4FF002832D0214A2249C1
:10896000224B16600D7022481C60002120220FF05F
:1089700057FD204B002000216C1EC3E90001E4B22A
:1089800045B3DFF87C8006EBC404032702E0A6426F
:1089900020D01C469DF80630A57820788DF804700C
:1089A00023F00703424601A98DF806308DF80550E3
:1089B00004F0A0FFA4F108030028E8D002B0BDE84D
:1089C000F08104F03FFF0028C8D002B0BDE8F0817C
:1089D00007207047084A0948002101F0D7FC02B07F
:1089E000BDE8F08148320020F4310020F831002049
:1089F0002832002020320020E1860200E8880300AF
:108A00006D86020070B5084D2B785BB1074E0024CF
:108A10003368012113F8340005F05EF82B78013437
:108A2000A342F5D8002070BDF43100204832002068
:108A300000B585B00346002101AA44F20100CDE94A
:108A40000111039300F004F805B05DF804FB00BFCA
:108A500010B572B6FFF7E6FBFEF71CFE0028FBD14F
:108A6000104B114C1149E41AE408240444F00100AD
:108A7000FEF74AFF0E4B1B68DB0700D500BE0D4911
:108A800044F00200FEF740FFBFF34F8F0A490B4B43
:108A9000CA6802F4E0621343CB60BFF34F8F00BF9C
:108AA000FDE700BF70AE0300A0AE0300EC8803003A
:108AB000F0ED00E0F888030000ED00E00400FA05A6
:108AC0002DE9F043994FFC8B40F2D915AC4285B0AB
:108AD00059D0B4F5ED7F47D2002C00F0B48040F2BD
:108AE000C715AC4240F0BB8097F82340032C4AD115
:108AF0003C8C44F6206E4FF004080134A4B2744557
:108B00003C8400F2DA8021B9E2E014F0FF0100F0C9
:108B1000DF800678FF2E054601F1FF3400F10100E9
:108B2000F3D0FE2E40F0CE8001395FFA81F99145F5
:108B300028BF914687F82380C9B2B9F1000F4FD002
:108B40000024FE6815F801CF06F804C00134A145E1
:108B5000F7D1FC6897F82350A7F818904C44032DE0
:108B6000FC6012D13C8CC8E7B4F5F07F7DD0B4F541
:108B7000F67F74D1002287F8232002201A70FA832E
:108B800005B0BDE8F083B7F8189091452AD397F85F
:108B90005820FB8A664800901F2A03F1FF3388BFE4
:108BA0006449FB828CBF02F01F024FF0A0410123F9
:108BB00001939340C1F80C3500F1100402235E4884
:108BC00000226946CDE902430DF0BEFA002840F0CC
:108BD000A6804FF4F0730120FB8305B0BDE8F0835D
:108BE000A7F81890A2EB090497F85830FA68029297
:108BF000A4B2F02C28BFF0241F2B88BF4D4803944B
:108C000098BF4FF0A0404FF0010188BF03F01F0351
:108C100001FA03F3C0F80C350191454B4648009327
:108C2000002269460DF090FA002875D13A8BFB6856
:108C300001202344144440F2D912FB603C83FA83A0
:108C400005B0BDE8F083BC8AFC828CB1FF2600240D
:108C5000032587F828603C8387F8235049E70023E1
:108C60000320FB8305B0BDE8F083FC8A0021ECE71C
:108C700097F858202E4800901F2A4FF0FF0388BF16
:108C80002C4987F828308CBF02F01F024FF0A0411A
:108C9000012301939340C1F80C3500F11004022325
:108CA000254800226946CDE902430DF04DFA80BB0C
:108CB0004FF4F673FB83012062E702200022187054
:108CC000FA835DE70521002219700220FA8357E735
:108CD00097F858201F2A19D9164902F01F02144884
:108CE0000090012301939340C1F80C3500F110046A
:108CF0001023114800226946CDE902430DF024FA01
:108D000080B940F2C713FB83012039E74FF0A0413F
:108D1000E5E7FFF78DFECBE7FFF78AFE86E7FFF773
:108D200087FE56E7FFF784FEEBE700BF4C320020DA
:108D300074320020000300500C890300F0B5B84CD9
:108D4000C268E78A017C87B067B994F858501F2D34
:108D500086BFB44E05F01F054FF0A0460123AB407F
:108D6000C6F8083594F82360731E012B69D994F86E
:108D700022506B1EEDB2042B00F23182DFE813F0BB
:108D8000A10105002F02D7015801A38B1078B3F57C
:108D90001C7F00F2CD80B3F5137F26D840F2262247
:108DA000934200F2F480B3F5047FC0F0BE80A3F5D7
:108DB0000473162B00F2BC80DFE813F03903BA000D
:108DC000BA006A03BA00BA00BA00BA00BA009F0338
:108DD000BA00BA00BA00BA00BA00BA00BA00BA00C3
:108DE000BA00BA00BA00BA00ED036FF413773B443F
:108DF000232B00F29D80DFE813F0CB029B009B0049
:108E00009B009B009B000F049B009B009B009B0012
:108E10009B009B009B009B009B009B009B009B007A
:108E20009B005B049B009B009B009B009B009B00A6
:108E30009B009B009B00D5009B009B009B009B0020
:108E4000DF00436893F800C0881FBCF14C0FC0B22C
:108E500002F1060500F02A82C8B12B4602E011F0AB
:108E6000FF0010D01D781A46FF2D03F1010300F119
:108E7000FF311D46F3D0022E00F089810026014605
:108E800084F8236073E7BCF14C0F00F0178294F86C
:108E90002230012B00F0768194F822200121042A4F
:108EA000D3B28DF8091000F0CB8400F20A82013BA6
:108EB0008B4200F2CC84032384F8223094F82230D1
:108EC00000228DF80820002B00F06A8494F82230EC
:108ED000032B40F0578554480DF0E2F894F85820E1
:108EE0001F2A8BBF02F01F0010464E4D4FF0A045C9
:108EF00000F5E070002345F82030114684F8233057
:108F000084F822301F2A86BF464802F01F014FF026
:108F1000A04001238B400322C0F80835236884F861
:108F2000222002A8984707B0F0BD002B00F0CE80A9
:108F30000023A383062502AE94F858208DF809502B
:108F4000002103231F2A8DF8081084F8223000F234
:108F50006D8401234FF0A04103FA02F2C1F8082505
:108F600094F82230002B00F07F8494F82230032BF9
:108F700000F0D4831120FFF75BFD2C4B4FF08042B3
:108F8000C3F8242523683046984707B0F0BDB3F5F1
:108F90000E7FCDD110F0FC0F40F02681C10700F10B
:108FA000028346E310F0FC0F40F01E81481E4FF490
:108FB0001C73C1B20132E36102AE10463346102287
:108FC000FFF77EFD012840F20D819DF80850002D2D
:108FD00040F0C68494F848209209012A00F00C85DC
:108FE00022F0020282F00103002A00F0E58494F8E6
:108FF000582063604FF40070002303211F2A208152
:10900000A383ADF8083084F8221000F2B184012364
:109010004FF0A04103FA02F2C1F80825ADE700BF06
:109020004C320020000300500C8903000030004047
:10903000A38BB3F53B7F00F0208400F20A8140F25D
:10904000C3218B4200F00A84B3F5317FC0F0D18098
:1090500040F2D322934203D0B3F5397F40F01E840F
:10906000238BB3F5007F80F07283C3F5007594F80D
:109070005820E168C14E0496ADB2F02D28BFF0250E
:109080001F2A88BFBE48039598BF4FF0A0400B44ED
:1090900088BF02F01F02012101FA02F2C0F80C257C
:1090A0000591B8480293002202A90DF04DF800285E
:1090B00040F01F85228B4FF4397315442583A38319
:1090C00090E00222002384F82220A383002E40F0A7
:1090D000ED8394F8582040201F2A4FF001034FF4ED
:1090E0001541A06284BF02F01F02A54884F8233016
:1090F00098BF4FF0A04084F82430A185A24B029382
:10910000012101FA02F2C0F80C25103306260F25C2
:109110009C480493002202A9039605950DF014F8CB
:10912000002840F0C4834FF40473A3835AE0A38B58
:10913000B3F5267F00F0DA8040F2A220834200F0EF
:109140001981002B00F0C7800023A383062594F823
:1091500058208DF809500023012003211F2A8DF883
:10916000080084F82210636184F823306DD84FF032
:10917000A0410123934002A82268C1F80835904716
:1091800007B0F0BD0020022E02467FF477AE012327
:1091900084F82330137813F0FE0F7FF46FAE94F849
:1091A000581094F82430794C02941F2986BF7448D3
:1091B00001F01F014FF0A0400E3301228A40DBB2C4
:1091C000C0F80C25059304F10A0506236D4800221A
:1091D00002A9CDE903350CF0B7FF18B100E0032078
:1091E000FFF726FC07B0F0BD0023A383042502AEE1
:1091F000A2E6002B40F05283137813F0FC0F40F0EE
:10920000D782A37A03F00703012B00F02B83A38AF4
:10921000012B00F27C84E3821A46002A40F04A8344
:10922000012B00F278830025A58394F858208DF84F
:1092300009500023022003211F2A8DF8080084F81A
:10924000221084F82330636191D94D4902F01F0246
:109250008FE7B3F5487F00F00A83B3F54C7F0CD15C
:10926000002900F0A782114402E08A4200F0A282A5
:1092700012F8013B002BF8D0D5E740F20A308342C8
:1092800040F00C83002900F0C182114402E08A42C0
:1092900000F0BC8212F8013B002BF8D0002384F8C8
:1092A00023307A1E92B2A38AE282B6E730B1C81F99
:1092B00010F0FF0002F107057FF4CFAD6A1E012018
:1092C000D9E5052B40F0C38294F8582002231146BB
:1092D0008DF8083016E6137813F0FC0F7FF437AFE3
:1092E000481E4FF42673C1B20132E36110460DF1FE
:1092F00007034FF40072FFF7E3FB01287FF672AF1C
:109300009DF80750002D40F01F82A38A012B31D910
:1093100094F82330002B40F0378394F858104C20F9
:109320001F294FF001034FF47F42A06284BF01F078
:109330001F01134884F8233098BF4FF0A04084F8F1
:109340002430A285104B029301228A40C0F80C25DC
:10935000103306260F250B480493002202A903961A
:1093600005950CF0F1FE002840F00F8340F2A22397
:10937000A38337E70025A583E9E600BF84320020F8
:10938000000300500C890300743200207A32002060
:1093900010F0FC0F7FF428AFC20740F16C83238CE0
:1093A00001339BB2B3F5FA6F238400F25282A37AA1
:1093B00003F00703032B0CBF40230023002E40F0D3
:1093C000E78294F8581084F82F300222772369201E
:1093D0001F2984F82320A3624FF07F424FF005033A
:1093E00084F82E0084BF01F01F01AC48226398BFAF
:1093F0004FF0A04084F824300122A94B02938A4008
:109400004FF47F45C0F80C25A585103306260F259F
:10941000A4480493002202A9039605950CF094FE3B
:10942000002840F0B68240F24D23A383DAE6002EF6
:1094300040F0B68294F8582040201F2A4FF00103D4
:109440004FF41541A06284BF02F01F02934884F8D4
:10945000233098BF4FF0A04084F82430A185904B72
:109460000293012101FA02F2C0F80C2510330626FE
:109470000F258C480493002202A9039605950CF051
:1094800063FE002840F0CA8240F21323A383A9E6BA
:1094900010F0FC0F7FF4A8AE002E40F0BB8294F8D1
:1094A0005810814BA36201201F2948F2AA724FF085
:1094B000050384F8230084BF01F01F017748A285CB
:1094C00098BF4FF0A04084F824300122744B0293DF
:1094D0008A40C0F80C2510330626132571480493E2
:1094E000002202A9039605950CF02EFE002840F0FC
:1094F000928240F21923A38374E6430708D4A37A27
:10950000032262F3020310F0FC0FA3727FF46CAE2F
:10951000A37A03F00703032B4FF000030CBF402294
:109520001A462384002E40F01F8294F8581084F8C5
:109530002F207723022269201F2984F82320A36289
:109540004FF07F424FF0050384F82E0084BF01F0F6
:109550001F015248226398BF4FF0A04084F8243086
:1095600001224F4B02938A404FF47F45C0F80C25EF
:10957000A585103306260F254A480493002202A928
:10958000039605950CF0E0FD002840F0EE8140F2D6
:109590002623A38326E647077FF5FAAEA37A0122A6
:1095A00062F30203A372238C01339BB2B3F5FA6F0B
:1095B000238400F24E81002E40F0338294F858103C
:1095C00041201F294FF47F424FF00503A06284BF62
:1095D00001F01F013148A28598BF4FF0A04084F8E8
:1095E000243001222E4B02938A400125C0F80C251D
:1095F00084F823501033062613252A4804930022AA
:1096000002A9039605950CF09FFD002840F00A8200
:109610004FF40E73A383E5E510F0FC0F7FF4E4AD87
:10962000D2F801301BBA5B0003D5A37A43F00803DC
:10963000A372A37A03F00703032B3DD0002E40F062
:10964000AB8194F85810194BA3621F294FF0010306
:109650004FF47F4288BF114884F823308CBF01F05B
:109660001F014FF0A04084F82430A2850C4B0293D8
:1096700001228A40C0F80C25103306260F25094820
:109680000493002202A9039605950CF05DFD0028C5
:1096900040F0838140F26123A383A3E500030050DF
:1096A000743200200C8903004800000150000002C1
:1096B00010F0FC0F7FF498ADBB4BE3600123A38255
:1096C000002E40F0EF8094F8581084F823304920A1
:1096D0001F294FF47F42A06284BF01F01F01B348ED
:1096E00084F8243098BF4FF0A040B14BA2850122EE
:1096F0008A40C0F80C250293062610330F25AD488A
:109700000493002202A9039605950CF01DFD002884
:1097100040F0C98040F26B23A38363E5A5480CF0B9
:10972000BFFC94F858301F2B86BF03F01F039F49DE
:109730004FF0A04103F5E073002241F8232084F8A4
:10974000232084F8222018E40023A383FFE494F864
:109750005820E3689648029003211F2A03F50073FE
:1097600084F8231084BF02F01F029049E36098BF81
:109770004FF0A041012303939340C1F80C3500F151
:10978000100503238B48002202A9CDE904530CF0F5
:10979000DBFC002840F0B1814FF43B73A38321E54B
:1097A0000820FFF745F994F858201146FFF7AABBA7
:1097B00004253AE5032E7FF436AD238C01339BB2AA
:1097C00044F62062934223842CD894F85820784899
:1097D00002901F2A86BF754902F01F024FF0A04178
:1097E000012303939340C1F80C3500F110051023B9
:1097F0007048002202A9CDE904530CF0A5FC002812
:1098000040F082814FF44C73A383EBE4032E7FF48A
:1098100048AD238C01339BB244F6206293422384EB
:1098200040F207810023A3830225FEE45F4902F092
:109830001F02012303FA02F2C1F80825FFF790BBCB
:1098400094F858208DF808101146FFF75BBB0320F1
:10985000A7E70023A38302AEFFF76EBB137813F0D4
:10986000FC0F17D1A38AD6E40820FFF784BB03229C
:10987000012384F823202384A7E794F83A3003F0E7
:109880001F03052B00F0D1800B2B00F024810D2B42
:1098900000F021810023A3830425C6E40023A383D1
:1098A0000625C2E41120FFF7C3F833E71120FFF7C4
:1098B000BFF838E494F85810012B4FF000008CBF2B
:1098C000FC25FE2504221F294FF0FF03208384BFBF
:1098D00001F01F01354884F8232098BF4FF0A040C5
:1098E00084F828300122324B84F829508A40C0F88D
:1098F0000C25022502932F4805951033002202A95A
:10990000CDE903530CF020FC002840F0E88040F241
:10991000D323A38366E494F858104FF6FF531F290E
:1099200088BF224823858CBF01F01F014FF0A04063
:109930001F4B029301228A40C0F80C2510330226E7
:1099400003251C480493002202A9039605950CF0F8
:10995000FBFB002840F0C6804FF44873A38341E42A
:109960000023A383FFF7E8BA1120FFF761F80EE6A2
:109970000E4902F01F02012303FA02F2C1F8082582
:10998000FFF7FBBA11200CE71120FFF751F8EDE4C7
:109990001120FFF74DF846E51120FFF749F879E669
:1099A0001120FFF745F86FE59432002000030050C6
:1099B000743200200C89030094F84F3094F8505012
:1099C00094F8512094F84E0094F84D109B0003EB4E
:1099D0009513520094F85250800202F0060201F0F2
:1099E0000F01013300F4406002EBD5120739034444
:1099F0000A449340FFF7FBBA94F8513094F85010A2
:109A000094F84F20013303EB012303EB02439B0245
:109A1000FFF7EDBA1120FFF70BF86AE5FFF708F83A
:109A200032E51120FFF704F8F2E5032E68D1012397
:109A3000238494F85820584802901F2A86BF57491B
:109A400002F01F024FF0A041012303939340C1F89D
:109A50000C3500F1100510235148002202A9CDE970
:109A600004530CF071FB002840F0938040F20A335D
:109A7000A383FFF7B7BB002E37D194F858207A2084
:109A80001F2A4FF47F414FF00503A06284BF02F00C
:109A90001F024248A18598BF4FF0A040012184F8E1
:109AA00024303D4B029301FA02F20125C0F80C2547
:109AB00084F82350103306261325394804930022D6
:109AC00002A9039605950CF03FFB78B940F25323A9
:109AD000A383FFF787BB0023A383FFF7A6BBFEF793
:109AE000A7FF14E7FEF7A4FF36E71120FEF7A0FF5B
:109AF000ECE7FEF79DFFFFF7DDBAFEF799FF4BE6B7
:109B000000232384FFF7CDBBFEF792FF7AE6002EF9
:109B10003BD1236994F8582084F82C3001211F2A66
:109B20004FEA13654FEA13404FEA132384F82310DA
:109B300084F8241084F82A0088BF184984F82B3050
:109B4000104694BF4FF0A04102F01F00124B84F862
:109B50002950012282405926FF25C1F80C2584F89E
:109B6000286084F82D500293062610330F250C48E8
:109B70000493002202A9039605950CF0E5FA28B992
:109B800040F2C323A383FFF72DBB1120FEF750FF44
:109B9000F6E7FEF74DFF69E774320020000300503E
:109BA0000C89030070B53B4B93F8224084B0002C25
:109BB0005BD093F82240032C53D1002A59D09C7AD1
:109BC00093F82360D860042583F8225000252407E9
:109BD00062F30F0562F31F4558BF49020024012AB2
:109BE00019615D618CBF522251229C83002E44D1A9
:109BF00093F8584083F8282001221F2C4FEA116562
:109C00004FEA114083F82C1083F823204FEA1121EA
:109C100083F824204FF0FF0283F82B1083F829509B
:109C200088BF1D4983F82A0083F82D208CBF04F0DB
:109C30001F044FF0A041194B00930122A240C1F82C
:109C40000C2510330F24164803940625002269467C
:109C5000CDE901530CF078FA0446A0B9204604B0CF
:109C600070BD1124204604B070BD0824204604B005
:109C700070BD0724204604B070BD1120FEF7D8FE49
:109C8000204604B070BDFEF7D3FE0024204604B089
:109C900070BD00BF4C320020000300507432002021
:109CA0000C89030070B5694B93F8224084B0002CF6
:109CB0005ED093F82240032C57D1002A5BD09C7AC7
:109CC000052583F8225025074FF0000558BF4902AB
:109CD00062F30F05C3E9030162F31F450020012A67
:109CE0005D61988300F0838004F00704012C4BD061
:109CF00093F82300002841D193F85810544C83F86E
:109D000030001F294FEA122083F832204FF07705E8
:109D10004FF00102C3E90A5483F8310083F824208C
:109D20004FF0FF0088BF4B4C83F833004FF0020622
:109D30008CBF01F01F014FF0A044012283F8236083
:109D40008A40454B45480093C4F80C25103306253E
:109D50000F2400226946CDE9015303940CF0F4F975
:109D6000002841D1002004B070BD112004B070BDA6
:109D7000082004B070BD072004B070BD1120FEF7AC
:109D800057FE002004B070BD93F82320002AF5D1BF
:109D900093F8585083F82C105922080C1F2D4FEAC5
:109DA000116683F828204FEA11214FF0FF0283F853
:109DB0002B1083F82A0083F82D2083F8234083F8A2
:109DC000244083F8296088BF05F01F05224B88BF17
:109DD0002049224800934FF0010298BF4FF0A04164
:109DE000AA40C1F80C25B1E7FEF722FEBAE793F8C6
:109DF00023000028C2D193F8584083F82320080C90
:109E00001F2C4FEA116583F82C1083F824204FEAA9
:109E100011214FF0FF024FF0580683F82B1083F802
:109E20002A0083F82D2083F8286083F8295088BF02
:109E300004F01F04084B88BF0649084800934FF000
:109E4000010298BF4FF0A041A240CAE74C32002067
:109E500000FF570000030050743200200C890300FB
:109E6000F0B53A4C94F8223089B0002B61D10D4600
:109E700000295AD0C378FF2B57D04278FF2A54D0FC
:109E80000278FF2A51D08278FF2A4ED01F2B84F807
:109E9000583086BF03F01F032D494FF0A04103F552
:109EA000E0760327012241F8267002FA03F3C1F895
:109EB00008350178877846788DF80110FF21002356
:109EC0008DF800708DF802604FF606774FF08066CF
:109ED0008DF803101F4A2048ADF80C306946ADF8E4
:109EE000047002960BF0A4FE38BBA37A1B492560D0
:109EF00023F00F03002501F11006A3720491012342
:109F0000FF2184F82230059384F828100A2314488E
:109F100007932A4604A9069684F823500CF014F9F6
:109F2000034668B9184609B0F0BD0723184609B0C2
:109F3000F0BD0823184609B0F0BDFEF779FDD4E75F
:109F4000FEF776FD2B46184609B0F0BD4C320020D6
:109F5000000300503D8D0200088903007432002088
:109F60000C89030010B5114C94F82230E3B194F839
:109F70002230032B01D0112010BD0D480CF090F8B9
:109F800094F858301F2B86BF03F01F0309494FF088
:109F9000A04103F5E073002241F82320104684F825
:109FA000232084F8222010BD082010BD4C32002050
:109FB0000C89030000030050064B93F82220032A6B
:109FC00005D093F82200003818BF01207047002008
:109FD000704700BF4C320020044890F82230022B1A
:109FE00000F1040098BF0020704700BF4C320020F1
:109FF000D0E90223D1E90201994208BF90422CBF67
:10A0000001200020704700BF2DE9F04F2DED028B9D
:10A0100085B0064600F080FB40B1B54AD2E9003178
:10A0200013F1807341F10001C2E900310021304693
:10A0300000F08EFBAF4C60B1236853B1AE4B256886
:10A040001B7823B11DB12B7F002B40F01C81002316
:10A0500023600121304600F07BFB002840F0F680B1
:10A06000A64803A901F066FF78B3A54DDFF8888202
:10A07000A24F0BE0002B00F0CD8003A9384601F081
:10A0800089FF03A9384601F055FFF0B10378012B91
:10A0900012D0022BEED128464FF0000903F07EF9D2
:10A0A00030B180F81C90284603F078F90028F8D1E8
:10A0B000012388F80030E0E741682368994200F006
:10A0C000BA80284603F074F9D7E7DFF834828D4F61
:10A0D000DFF81C9208EE106A37E0404603F05EF9A4
:10A0E00005463846AB68EA680193009200F040FBF1
:10A0F000854E8446D9E90001D6E9002310EB0C0017
:10A1000041F10001994208BF9042DDE9002303D2EA
:10A1100010F1807041F10001B3EB000A62EB010B1A
:10A12000BAF1010F7BF1000329DBBAF5350F6BD2D1
:10A13000AA684FF496030021384600F067FA002819
:10A140005AD00D281FD000232360404603F02CF97D
:10A15000002873D02368002BBFD02368D0E9020108
:10A16000D3E90223994208BF904248D223681B7F5B
:10A17000002BB2D02168404603F0FCF8ADE7002187
:10A18000384600F0D9FA5C4B1B78002BDBD02B7FD4
:10A19000002BD8D0384600F0EBFA8446D9E900010C
:10A1A000D6E9002310EB0C0041F10001994208BFF1
:10A1B000904203D210F1807041F10001D5E90223F1
:10A1C000994208BF904259D32B6903B92B77D5E93F
:10A1D0000530984729690029B5D02B7F002BB2D0D4
:10A1E000D5E90223521843F10003C5E902232946A9
:10A1F000404603F0BFF8A6E72368BBB1256005B071
:10A20000BDEC028BBDE8F08F384600F0B1FA3F4A52
:10A2100002448EE743681A7F002A7FF42EAF0122A2
:10A220001A774168284603F0A5F826E718EE100AC9
:10A2300000F0BEF9E2E7002323601EE72368002B4D
:10A24000DDD118EE100A00F0B7F9D8E72D482E4DF1
:10A2500000F08EFA264BD3E90089D5E9002318EBEC
:10A26000000849F10009994508BF904503D218F14B
:10A27000807849F10009C5E90089F1E629464046A0
:10A2800003F078F85FE71F4800F072FA184A1E4B97
:10A29000D2E90089D3E9002318EB000849F100094D
:10A2A000994508BF904503D218F1807849F100091B
:10A2B000D5E90223994508BF904529D32B6903B9F5
:10A2C0002B77D5E905309847296900293FF4BFAEBF
:10A2D0002B7F002B3FF4BBAED5E90223521843F18C
:10A2E0000003C5E902230648294603F043F8AEE619
:10A2F000B032002030330020B83200201433002068
:10A30000288903000C2B002028330020FFFFB40015
:10A310000248294603F02EF899E600BF2889030079
:10A3200010B5134B13491B68134882B05822019390
:10A33000082301F087FD044610B1204602B010BD8D
:10A340000E4A0F4801A900F0D5F804460028F4D1C0
:10A350000B48012100F0D6F901231946094A0848A3
:10A3600000F02EF9084B012220461A7002B010BDF1
:10A3700024890300BC3200201433002009A002000D
:10A380000C2B0020FFFF7F00B83200204AB1A1F162
:10A3900001010368B1FA81F14909C3E904120020FF
:10A3A00070470720704700BF037F0BB10020704744
:10A3B000F0B5826183B004461A480D4600F0D8F922
:10A3C000194B1A49D3E90023D1E90067121843F168
:10A3D0000003BB4208BFB24203D212F1807243F1C4
:10A3E00000035219216943F10003C4E9022301B1BA
:10A3F00025610F4801A901F05FFD48B100254460C7
:10A40000057001A90A4801F085FD20B903B0F0BD2F
:10A41000042003B0F0BD034800F0AEF9284603B0B5
:10A42000F0BD00BF0C2B0020B032002028330020EC
:10A430001433002030B5002583B00446057701A908
:10A440000B4801F039FD78B101224460027001A986
:10A45000074801F05FFD08B903B030BD054800F0C2
:10A460008BF9284603B030BD042003B030BD00BFD7
:10A47000143300200C2B002070B4EFF3108472B65C
:10A480000D4B9A68AAB90D490D4E01259D60D1F872
:10A49000805035401D60C1F88060D1F884505D6007
:10A4A0004FF0FF33C1F88430027004B962B670BC5B
:10A4B000704701230370F8E75044002000E100E0FA
:10A4C000FC06FFBD094B9A687AB170B910B4EFF37E
:10A4D000108172B6064A1C6814605C68546098600B
:10A4E00001B962B65DF8044B7047704750440020D4
:10A4F00000E100E070B5264C4379264E04EBC3051D
:10A5000046F823202D79002D35D103680A88C3F839
:10A51000082590F904308A78002B24DB03F160438E
:10A5200003F561435201D2B283F8002390F904206D
:10A53000194E1A4B012502F01F01520905FA01F1CB
:10A5400046F82210164E4279164944F83200981BFC
:10A5500004EBC204C008000440F003002571FDF7BD
:10A56000D3F9002070BD104903F00F0352011944C4
:10A57000D2B20A76DAE70A4B08480C49C01AC0087A
:10A58000000440F00200FDF7BFF9082070BD00BFD5
:10A59000343300203C33002000E100E0B0AE030083
:10A5A00070AE030058890300FCEC00E0348903001E
:10A5B000036801221A607047036801225A607047DD
:10A5C000F0B404684FF480358D40C4F80853066831
:10A5D00001F15004C6F84853A4000668A4B200274D
:10A5E000375182B036590468019601F5A87122F0FE
:10A5F0007F42019E44F821200268C2F8445313B1FF
:10A600000368C3F8045302B0F0BC70472DE9F0476B
:10A6100004464FF4803600688E40C0F848632068D6
:10A62000C0F80863206800EB81058A46D0F804155D
:10A63000D5F84005C5F840150AF15005AD0027686A
:10A64000ADB24FF0000847F8058082B0401A7F593C
:10A65000009720F07F40012822F07F479946009A1A
:10A6600041D02268D2F80455C2F844637A1B22F024
:10A670007F42012A0AF5A87125D0226842F821708C
:10A680002068D0F804557A1BC9F1FF13013A03F58D
:10A690007F4322F07F42934211D342B1C0F844631A
:10A6A00023680020C3F8046302B0BDE8F0870137D7
:10A6B00040F821702068D0F804359D42EED00D207E
:10A6C00002B0BDE8F08720680D4B013740F82170DB
:10A6D00043F001034FF4806098472068D0F80435B8
:10A6E0009D42DBD0EBE7064A4FF4806042F0010266
:10A6F0009047226842F8058052590192019AB0E7CA
:10A700007089030002680223C2F8443311B1026861
:10A71000C2F80433704700BF0368D3F8040100B9DE
:10A720007047002282B0C3F80421D3F804310193AA
:10A73000019B012002B0704702684FF4803303FA96
:10A7400001F1C2F848130368C3F80813704700BF4B
:10A7500050318900036889B2585800B97047002207
:10A760005A5082B05B580193019B012002B07047A0
:10A770000368D3F80405704790F9043005485A0976
:10A780000121403203F01F0301FA03F340F82230A5
:10A79000704700BF00E100E0024A034B10681B68ED
:10A7A000184700BF343300203C3300200223F0B5AB
:10A7B0000B8000F580550830002A33D02B4F4FF620
:10A7C000FF764FF0010C036801331FD0B0F802E0B0
:10A7D0000EF1030400EB8404A5421DD38388B34229
:10A7E00015D003889BB183685C1C10D03C689C42E8
:10A7F00002D23B60B0F802E00B88033373440B8055
:10A800004388033300EB83008542DCD8F0BD82F837
:10A8100000C0B0F802E0EFE7012313704FF480634B
:10A820000B80F0BD114E4FF6FF7403680133EDD07D
:10A830004388DA1C00EB82029542EFD38288A24261
:10A8400009D002883AB18268571C04D03768BA42EE
:10A8500084BF326043880A88033213440B804388E4
:10A86000033300EB83008542DFD8F0BD783300204E
:10A87000F0B543688C461BB1324AD468A3423CD23F
:10A880000023314EACF8003073684FF0010E03F531
:10A8900080544FF6FF7708339C420ED8BEF1020F6A
:10A8A000ACF800E006F114064AD0736803F5805452
:10A8B00008339C424FF0020EF0D91A680132EDD0F5
:10A8C0005A88033203EB82029442E7D39D88BD424B
:10A8D00009D01D883DB19D68691C04D00168A9425A
:10A8E00005D01346D8E79442D8D91346E5E7174A6E
:10A8F0004360138903810120F0BD12699342BFD8E0
:10A9000013F00305BCD1114A048912899442B7D1CE
:10A9100004689A689442B3D10B484268934203D9C1
:10A9200002F58052934207D38269934208D902F517
:10A930008052934204D20125ACF800500120F0BDB2
:10A940000020F0BDAC2B00208033002064330020B9
:10A950002DE9F04F9C4E8BB004464FF6FF773568DB
:10A96000002D00F0CB802A78531E052B00F2908139
:10A97000DFE803F05C2323030341002C40F0C58093
:10A980002B79012B00F0C082022B00F0DA80002B23
:10A9900000F092820DF11408C8E902440594C8F849
:10A9A000104048F20E6406942B78013B052B4DD8DD
:10A9B000DFE803F0756685799949B5F814A0002C95
:10A9C00040F05482DFF82082A97D0AEB8A0308EB6D
:10A9D00083034FEA8A091C895B6803EB8404062918
:10A9E00000F27B84DFE811F02B021802FE01EB017C
:10A9F000CA01B0019601002C40F08780DFF8ECC15D
:10AA00009CF80C30002B00F0C4809CF800308CF8CF
:10AA10000C40013B062B00F23B81DFE813F01903E9
:10AA2000F30224010C013901DD02E900002C40F0A1
:10AA300015822B79032B00F29F80DFE813F05F0172
:10AA400072005401340105238DF814305F4C04F179
:10AA5000100554F8043B404603B19847A542F8D18D
:10AA60005B495C480024346001F094FA5A480121A3
:10AA700001F06AFB00287FF472AF0BB0BDE8F08FE5
:10AA800001238DF814302B89ADF82030AB88ADF858
:10AA90002230EB68079300238DF82430D6E700239B
:10AAA0008DF81430D2E703238DF81430EB88ADF81D
:10AAB00020302B89ADF82230EB680793C6E70223DC
:10AAC0008DF814302B89ADF82030AB88ADF82230EA
:10AAD000EB680793AB7DA3F10603B3FA83F35B093D
:10AAE0008DF82430B2E704238DF81430EB88ADF8EC
:10AAF00020300023ADF822300793A7E734493548CA
:10AB000001F018FA054630602DE74FF406440DF1C8
:10AB100014080023C8E90033C8E90233C8F810302C
:10AB200041E7DFF8C48098F80030022B12D098F883
:10AB30001430022B00F0A883284B01210022197049
:10AB40005A600DF114080024C8E90344C8F808400D
:10AB5000059428E700239A001A4408EB820300209A
:10AB600059680090082308F822001D4A1D4801F08A
:10AB70005FFF002881D03568184A0DF114080023C2
:10AB8000C8E9023353600593C8F8103048F20D64E9
:10AB900009E79CF80030072B09D8DFE813F0DC0246
:10ABA000080008000E03FA0229002900D602013B22
:10ABB000062B6DD8DFE813F04C02260257003F0049
:10ABC0006C0010021C0000BF7C3300204C330020BE
:10ABD0007433002034340020443400205C330020DF
:10ABE0007C890300AC2B00208033002064330020DC
:10ABF000BB4BBC4A1968BC4800230093CCF8043016
:10AC000007238CF80030082301F012FF0446002CC3
:10AC10003FF433AF35680DF1140841F61D5200239F
:10AC20009442C8E90333C8F80830059308BF1C46AE
:10AC30003FF4B9AE16E3BCF80230DFF8C88203EB8C
:10AC4000830308EB8308D8F80C30002B40F04D82CA
:10AC500004228CF80020D8F80410A348012201F047
:10AC600085FF0446D3E7DCF804209D485388848898
:10AC700001689D4803339BB29B0001EB84010024D3
:10AC8000009403248CF8004001F0D2FE0446BEE795
:10AC90000DF114080023C8E90333C8F80830059300
:10ACA00048F20E647FE68E4C904A21688E48DFF8A9
:10ACB00054824FF0000985F804900823CDF80090E5
:10ACC00001F0B6FE8A4B25685B88A18803EB8303FD
:10ACD00008EB830208F82390536823600223556031
:10ACE0001181A38045E77E4A7F4811680023022432
:10ACF0002B719480012201F039FF3AE7784B794AB1
:10AD00001968794801232B7100230093082301F06F
:10AD10008FFE2EE72A4641F61D5409EB0A0108EB87
:10AD20008101EB880889033303440B81D144EB880C
:10AD300008EB8908C3F57F43B8F80A10FD330B44CC
:10AD40001546A8F80A3066E76A4B6B4A1C885168BA
:10AD500065486A4A00234FF0060C85F816C0009338
:10AD6000042301F065FE18BB04EB840408EB84089F
:10AD7000012388F810300BB0BDE8F08F5E48AB6956
:10AD80005C4903604FF0000BC0F804B0FFF770FDA2
:10AD9000002800F06A820223AB7504235248CDF8E4
:10ADA00000B02146EA1801F043FE00283FF465AEEA
:10ADB000AB7D3268022B48F20D64B7D9ADE7EB8862
:10ADC0002A6949484FF0010C04F10C01002485F870
:10ADD00016C09B00009401F02BFE0028E8D10BB0B8
:10ADE000BDE8F08F2B694048002B14BF03230123DB
:10ADF0000022AB7504F108010092042305F10C0256
:10AE000001F016FE00283FF438AEAB7D3268022B0D
:10AE100048F20D648AD980E7032A0CBF0523062374
:10AE20000022AB7530480092211D042305F1080271
:10AE300001F0FEFD0028BBD10BB0BDE8F08F02236E
:10AE40000022AB750423009227482146EA1801F03E
:10AE5000EFFD0028ACD10BB0BDE8F08F284B0022ED
:10AE60005A604FF406440DF1140852E6AB7DDFF84A
:10AE70009480022B08D90AEB8A0208EB8202EB8845
:10AE8000118903330B4413814FEA8A0909EB0A0144
:10AE9000EB8808EB8101C3F57F434A890DF1140863
:10AEA000FD3313440022C8E903224B81C8F808206F
:10AEB00005924FF4064476E502232B71CDE9064452
:10AEC0000DF11408EB68059340460DF11201FFF7F0
:10AED000CFFC002840F09E8148F2096419E600BFCB
:10AEE0004834002084890300AC2B00207C890300B7
:10AEF000643300205434002040330020788903005C
:10AF00005C33002080330020BB4B1B78002B00F00B
:10AF10009B81DFF8E8E2BEF80490B9F1010F12D886
:10AF2000DFF8EC82039409EB890208EB82021378C4
:10AF300083B109F1010399B201299946AEF80430B1
:10AF400002F11402F3D9AD48082200210DF068FA8D
:10AF50003568F6E55368DEF8001003F5805C03F110
:10AF6000080A002900F06E814B88033301EB83014E
:10AF70008C4506D8039BCEF80030DAE79C45F9D91A
:10AF800019460B680133F5D04B88033301EB83037B
:10AF90009C45EFD38C88BC42F0D0B1F800B0BBF137
:10AFA000000FEBD088680130E8D0EB88CEF80010B5
:10AFB000A342D6D100230093914A9248042301F082
:10AFC00037FD002840F07E8109EB890908EB8908EC
:10AFD000012388F8103050E5BCF80220DFF83082F9
:10AFE0009300134408EB830806200023D8F80410CC
:10AFF000854A00938CF800000823824801F018FD70
:10B00000044604E6BCF80200DFF80482DCF8042001
:10B0100000EB800308EB83034FEA800E596801F5CB
:10B020008055002A40F0E28001F10802AA426DD367
:10B03000704408EB8008D8F80C30002B55D1042060
:10B040008CF8000001226F4801F090FD0446DEE517
:10B050009CF80A3063B1DFF8B881D8F80C300022D0
:10B060008CF80A2023B998F81020002A40F030818B
:10B070009CF80B3053B1DFF89881D8F820300022CB
:10B080008CF80B2013B998F8243073B90DF114081B
:10B090000023C8E90333C8F808308CF80030ACF856
:10B0A0000230CCF8043005937DE4012318464FEAC2
:10B0B000830E0EEB030108EB8101DCF804204968E4
:10B0C000ACF8020001F58055002A00F00381508899
:10B0D000033002EB8002954200F2D880734408EB03
:10B0E0008308D8F80C30002BA9D0484B4548196884
:10B0F00002229A8005228CF800200023012201F010
:10B1000035FD044683E5AB4292D21A4613680133FB
:10B110008ED05388033302EB8303AB4288D89488E4
:10B12000BC42F0D01488002CEDD094680134EAD0F1
:10B13000CCF80420354C5388A58821683148033366
:10B140009BB29B0001EB850199E501238CF800304F
:10B150009CF80A307EE7DFF8B880BCF8081098F851
:10B16000142098F80030B2FA82F252090131B3FA91
:10B1700083F35B098CF80B20ACF808100022012146
:10B180008CF80A30ACF802208CF80C208CF80010F7
:10B1900060E7BCF80220DFF878801C4902EB8203EC
:10B1A00008EB830308685D688C88586002201C8166
:10B1B0000D60888002FA00F313E7BCF80200134C1C
:10B1C000DFF84C80DCF80420A388558800EB800170
:10B1D00008EB8101033349682B444FF0020901F564
:10B1E0008055A38000FA09FE8CF800905388033341
:10B1F00002EB83021AE700BF5C33002058340020C2
:10B2000078890300AC2B00207C890300483400209F
:10B21000803300200699334A8B88EB800B882B8182
:10B22000314800940423BDF8124001F001FC38BB02
:10B230002E4B04EB840403EB8404012323740BB032
:10B24000BDE8F08F514693E60DF1140821462848D9
:10B2500008220DF0E5F8C8E902440594C8F810404A
:10B2600048F201643568FFF79EBB0DF11408C8E988
:10B270000200059048F20964C8F81000FFF793BB7C
:10B28000356848F20D6444E4012364E41068013039
:10B290003FF424AF5088033002EB80008542FFF476
:10B2A0001DAF9488BC4205D014881CB19468013449
:10B2B0007FF43EAF85427FF611AF02461068013041
:10B2C000E8D10BE7356848F20D640DF1140820E46D
:10B2D0001846ECE601F10802FDE62A4648F20E6443
:10B2E0001BE500BF78890300AC2B002080330020D1
:10B2F000583400204068FFF72BBB00BF094A116893
:10B3000004290BD038B5084C1568034601211046B6
:10B3100044F8253000F00AFF002038BD48F20B60E9
:10B32000704700BF503400204C3300202DE9F04F0F
:10B33000954D89B02A780023CDE90333CDE9053353
:10B34000079372B1914C04F1100554F8043B03A823
:10B3500003B19847A542F8D10024204609B0BDE8C2
:10B36000F08F281D02F0FF0900F0FCFE0028F3D149
:10B3700040F6F8731B685C1C41D04FF08052116995
:10B380005269DFF834828249C8F810304046A3F58C
:10B3900040530022C8F80C3001F01CFB0446002882
:10B3A000DBD17C497C48DFF814A21C238C2200F0FE
:10B3B00049FD26464FF0030B2746D8F80C30F0180D
:10B3C000F35827D0754A934279D14368744A93421F
:10B3D00078D00132934222D1B9F1000F40F09C8025
:10B3E000704B7149186000220193FFF7DFF9019B50
:10B3F0009B88022B0CBF042308231C4328E06B4BC3
:10B400004FF080521B6811695269581C08BF02FB3B
:10B4100001F3B6E75A1C02D0604A93420AD1031DD9
:10B4200000F5805101E0994261D01A68013203F1C0
:10B430000403F8D007EB87030AEB830203210BF127
:10B44000FF3B01370AF823101FFA8BFBBFB2506095
:10B4500006F58056B6F5405FAFD1BBF1010F40F263
:10B460009080E4B2062C0ED1484C012200232A70B1
:10B4700004F110066B6054F8043B03A803B198472D
:10B48000A642F8D168E702D814F0FD0F79D002A9DE
:10B49000414800F011FD1C22054600210CF0C0FFC0
:10B4A000002D68D00123013C2B700A2C4ED8DFE818
:10B4B00004F04B4D4B4D5F4D5F4D5C655C000133BF
:10B4C000B8D1ACE707EB870300220AF823209900E4
:10B4D0000AEB830301F110020831524451445860D1
:10B4E0000137FFF763F944F00204BFB2B0E72D4B18
:10B4F0001A681AB307EB87030AEB83010222DFF80D
:10B50000B0C048600A810AF82320791CACF80270A8
:10B510008FB244F001049BE7254A224B578007EB8A
:10B52000870E0AEB8E024FF0020C19680AF82EC043
:10B5300001375160A2F808C0BFB252E7022218607A
:10B540009A804FF00109E4E700232B7102A9124809
:10B5500000F0E0FC1748012100F0DAFD0446002865
:10B560007FF4FAAEFFF7F4F9F7E603232B71EDE76A
:10B5700001232B71EAE748F20764EEE602232B7100
:10B58000E4E748F20A64E8E65C3300204C3300202C
:10B59000988B0300A833002034340020DEC0ADDED9
:10B5A000FE011EF1483400204C340020141000101D
:10B5B0006433002044340020AC2B00208033002072
:10B5C00030B370B50D4682B0F1B10DF106010446FD
:10B5D000FFF74EF918B948F2096002B070BDBDF826
:10B5E00006000D4B666800EB800003EB8000012134
:10B5F0000C3000F09BFD2E60636801220C330020AC
:10B600006B60A27202B070BD48F2046002B070BDFF
:10B6100048F20460704700BF8033002010B310B5BB
:10B6200082B00DF106010446FFF722F9B0B1BDF872
:10B6300006300E4A03EB830302EB8303DA684AB158
:10B64000A27A3AB1DA680021013A0846DA60A172BA
:10B6500002B010BD48F2056002B010BD48F20960AA
:10B6600002B010BD48F20460704700BF8033002074
:10B670002DE9F047514B1B7882B083B30C4600296B
:10B6800045D00A884FF6FF739A4222D04B8803B305
:10B690004D6815F0030534D1B1F8089009F10303A2
:10B6A0009BB240F2FE32934234D8454A11780746A5
:10B6B00039B9508911890144194489B2B1F5806FB3
:10B6C0002BD9117D89B148F20665284602B0BDE844
:10B6D000F08748F20365284602B0BDE8F08748F2DB
:10B6E0000165284602B0BDE8F087D08B918B0144FC
:10B6F000194489B2B1F5806FE5D84FF00108414691
:10B700000DE048F20265284602B0BDE8F08748F235
:10B710000465DAE748F20865D7E7A84629464FEA04
:10B72000810A8A4402EB8A0A034401A92548AAF83F
:10B730000A3000F0C1FB1C22064600210CF070FE0E
:10B74000002E2FD002234FF0000AA6F81480337089
:10B7500086F816A06368336101211B4800F0E6FCFF
:10B76000F0602388338163881648B38001A9A6F866
:10B770000AA0A6F8069000F0CDFB47B1C7F804A0D8
:10B78000F268124B3A601B8987F80AA03B81104887
:10B79000012100F0BDFC0446002896D1FFF7D8F83F
:10B7A000254692E7BAF80A30C9F57F4909F1FD0943
:10B7B0009944AAF80A9048F2076586E75C330020AE
:10B7C000803300203434002078330020643300209C
:10B7D000443400202DE9F04782B068B3524B1B7807
:10B7E000002B41D00C4639B30A884FF6FF739A42BA
:10B7F00034D04B8893B34E6816F003063AD1B1F8B3
:10B8000008A00AF103039BB240F2FE32934234D8FF
:10B81000464A1178054639B95189108908441844B7
:10B8200080B2B0F5806F2BD9117D59B148F2066610
:10B83000304602B0BDE8F08748F20466304602B0F8
:10B84000BDE8F087D18B908B0844184480B2B0F5E6
:10B85000806FEBD84FF00109484613E048F20366C9
:10B86000304602B0BDE8F08748F20166304602B0CB
:10B87000BDE8F08748F20266DAE748F20866D7E7E3
:10B88000B14630464FEA8008804402EB88080B44FA
:10B890002748A8F80A3001A900F00EFB1C22074631
:10B8A00000210CF0BDFD002F32D04FF00008032323
:10B8B000A7F814903B7087F8168063683B610121FC
:10B8C0001C4800F033FCF86023883B816388BB8010
:10B8D0000423A7F806A0BB752B68BB6101A9144817
:10B8E000A7F80A8000F016FBC5F80480FA68124B2E
:10B8F0002A601B89114885F80A802B81012100F0FC
:10B9000007FC0446002893D1FFF722F826468FE76C
:10B91000B8F80A30CAF57F4A0AF1FD0A9A44A8F835
:10B920000AA048F2076683E75C33002080330020DA
:10B930003434002078330020643300204434002065
:10B9400070B51D4B1B7882B00BB34FF6FF73984256
:10B95000044626D001A9194800F0AEFA1C2205467B
:10B9600000210CF05DFDBDB105230126EC8001A98D
:10B970002B7012482E7100F0CDFA1148314600F0BC
:10B98000C7FB044690B10024204602B070BD48F2C7
:10B990000164204602B070BD48F20764204602B040
:10B9A00070BD48F20364204602B070BDFEF7D0FFC0
:10B9B000204602B070BD00BF5C330020343400204C
:10B9C0004434002010B5194B1B7882B0F3B101A9A3
:10B9D000174800F071FA1C22044600210CF020FDEB
:10B9E000F4B106232370124801A900F093FA114B19
:10B9F0001A780AB101221A730F48012100F088FB5E
:10BA0000044640B10024204602B010BD48F2016453
:10BA1000204602B010BDFEF79BFF204602B010BDCD
:10BA200048F20764204602B010BD00BF5C3300201E
:10BA30003434002064330020443400202DE9F047E2
:10BA4000324C2478002C59D0002A5BD0002B59D0DE
:10BA50009F88012F14D82E4E07EB87048A4606EBE9
:10BA600084064FF6FF7E4FF0000834785CB1013752
:10BA7000BCB2022C9C8006F114064FF00107F4D1F1
:10BA800048F2096035E01C68756805F5805C002C9B
:10BA900031D06588033504EB8504644505D3C3F8CC
:10BAA0000080E4E7AC45FAD92C4625680135F6D08C
:10BAB0006588033504EB8505AC45F0D3B4F80490F4
:10BAC000F145EFD0B4F80090B9F1000FEAD0A168C9
:10BAD0000131E7D01C60A5888542D5D12588554520
:10BAE000D2D1A168116019680A4B51601B8913817A
:10BAF0000020BDE8F08705F10804CEE748F20160B8
:10BB0000BDE8F08748F20460BDE8F0875C330020B0
:10BB10008033002064330020304B1B78002B56D03C
:10BB2000002957D0002A55D02DE9F041B2F804E0A1
:10BB3000BEF1010F14D82A4D0EEB8E0305EB8305E1
:10BB40004FF6FF774FF0000C2B7863B10EF1010335
:10BB50009BB2022B938005F114054FF0010EF3D137
:10BB600048F209602EE013686C6804F580585BB3F6
:10BB70005C88033403EB8403434505D3C2F800C05B
:10BB8000E4E7A045FAD923461C680134F6D05C8866
:10BB9000033403EB8404A045F0D39E88BE42F0D06A
:10BBA0001E88002EEDD09E680136EAD013601C88F6
:10BBB0008442D9D19B680B6012680A4B4A601B898A
:10BBC0000B810020BDE8F08104F10803D4E748F2BE
:10BBD0000160704748F20460704700BF5C3300208A
:10BBE0008033002064330020304B1B78002B56D06C
:10BBF000002957D0002A55D02DE9F041B2F804E0D1
:10BC0000BEF1010F14D82A4D0EEB8E0305EB830510
:10BC10004FF6FF774FF0000C2B7863B10EF1010364
:10BC20009BB2022B938005F114054FF0010EF3D166
:10BC300048F209602EE013686C6804F580585BB325
:10BC40005C88033403EB8403434505D3C2F800C08A
:10BC5000E4E7A045FAD923461C680134F6D05C8895
:10BC6000033403EB8404A045F0D39E88BE42F0D099
:10BC70001E88002EEDD09E680136EAD013609C88A5
:10BC80008442D9D19B680B6012680A4B4A601B89B9
:10BC90000B810020BDE8F08104F10803D4E748F2ED
:10BCA0000160704748F20460704700BF5C330020B9
:10BCB000803300206433002020B119B103680B6089
:10BCC0000020704748F20460704700BF5A4B1B7851
:10BCD000002B00F0A9802DE9F04F044683B0002826
:10BCE00000F0A580122200210CF09AFBDFF84CE155
:10BCF000608821896589B4F80C80DFF844910323BA
:10BD00007246238000264FF6FF7C13895789D2F8AC
:10BD100004A03B449BB2BAF1000F55D0DAF8007092
:10BD20004F4551D1DAF8047007F16E6707F5FF3718
:10BD30000237012F48D8B70037440EEB87071D4460
:10BD4000FF680192384480B260805789C3F58063F0
:10BD50009BB239444345ADB289B288BFA3812181EA
:10BD60006581576888BF984607F1080307F5805733
:10BD70001A68013221D0B3F802A00AF1030A03EBDA
:10BD80008A0A57453AD3B3F804A0E24520D0B3F865
:10BD900000A0BAF1000F1BD09A68013218D0B4F895
:10BDA00004A00AF1010AA4F804A0B3F802A00AF161
:10BDB000030A03EB8A039F42DAD8019A14328EB346
:10BDC000002003B0BDE8F08F2788013F2780B2E74D
:10BDD000B4F806B0B4F80EA00BF1010BA4F806B04D
:10BDE000B3F802B00AF1030ADA44A4F80EA0B3F8DB
:10BDF00002A00AF1030A03EB8A03DCE74FF0010A11
:10BE0000B4F80EB084F810A0B4F806A0019AFB1A9A
:10BE10000BEBA3030AF1010AE381A4F806A0143294
:10BE2000002ECDD1012670E748F20160704748F23C
:10BE3000046003B0BDE8F08F5C3300208033002045
:10BE4000DEC0ADDE99B110B4B2FBF3F403FB1424F1
:10BE5000A4B244B9C0E9001484608281C381204641
:10BE60005DF8044B704709205DF8044B70470E20C5
:10BE7000704700BF82B050E8022FC188B2EB324F4A
:10BE80004FF0000317BF92B241EA014142EA01417B
:10BE900004E04268B2EB324F08BF012340E80212CF
:10BEA000002AE8D18DF807309DF80730002B0CBF31
:10BEB0001120002002B0704730B482B050E8013F3A
:10BEC0009DB2C48925448489A54228BF2D1B0489BD
:10BED000A54202BFBFF32F8F002207E0C5EA03058A
:10BEE00040E80154002CE9D14FF001028DF8032005
:10BEF0000193019B9DF803200B602AB10B88006819
:10BF0000184402B030BC704702F0FF03184602B07C
:10BF100030BC70470A884B889A4201D00020704795
:10BF200050E8012FC2EA024240E80123002BF7D17A
:10BF30000120704730B482B050E8023F1FFAA3F5E9
:10BF4000C488A54202BFBFF32F8F00220DE0C48931
:10BF500025448489A54228BF2D1BC3EA054540E836
:10BF60000254002CE8D14FF001028DF80320019318
:10BF7000019B9DF803200B602AB14B880068184490
:10BF800002B030BC704702F0FF03184602B030BC6C
:10BF9000704700BF0A884B889A4201D00020704742
:10BFA00050E8022FC2EA224240E80223002BF7D1D8
:10BFB000012070474A09012301F01F0100EB8200B4
:10BFC00003FA01F100F088B84B0910B501F01F0425
:10BFD000012100EB8300A14000F070F8E04000F088
:10BFE000010010BD01F01F0201234909934000EB3D
:10BFF0008100D94300F07EB84B0901F01F0150F8D1
:10C000002300C84000F00100704700BF2DE9F04F49
:10C0100001F1FF3A83B04FEA5A130D4604460193EB
:10C020004FF000094FF0010854F8293004EB89065D
:10C030006FEA030B9BFAABFBBBFA8BFBBBF1200F48
:10C0400025D00BEB491B5D454FEA49170CD81EE084
:10C050003368DB4393FAA3F3B3FA83F3202B07EBA4
:10C06000030B14D05D4512D90BF01F034FEA5B1090
:10C0700008FA03F104EB80009A4600F01FF820FA5A
:10C080000AF0C307E4D4584603B0BDE8F08F019A24
:10C090004A4509F1010301D09946C5E7AB46F2E7ED
:10C0A00010B4034653E8000F0A4643E8002494F016
:10C0B000000FF7D15DF8044B704700BF10B4034682
:10C0C00053E8000F40EA010243E8002494F0000F17
:10C0D000F6D15DF8044B704710B4034653E8002FC7
:10C0E00042EA010043E8000494F0000FF6D15DF845
:10C0F000044B704710B4034653E8002F02EA0100D6
:10C1000043E8000494F0000FF6D15DF8044B70474B
:10C1100010B4034653E8000F00EB010243E800248B
:10C1200094F0000FF6D15DF8044B704710B403464D
:10C1300053E8002F02EB010043E8000494F0000FE5
:10C14000F6D15DF8044B704710B4034653E8002F56
:10C15000A2EB010043E8000494F0000FF6D15DF873
:10C16000044B704710B40346012253E8000F40EA25
:10C17000020143E8001494F0000FF6D15DF8044B7F
:10C18000704700BF10B40346012253E8001F41EA84
:10C19000020043E8000494F0000FF6D15DF8044B70
:10C1A000704700BF10B40346002253E8000F00EAB6
:10C1B000020143E8001494F0000FF6D15DF8044B3F
:10C1C000704700BFB8B130B4D0E90112521A046808
:10C1D000D2B2531E2160DBB242B101680A685C1E14
:10C1E000551C0D601370E3B2FF2BF6D103680020DD
:10C1F000187130BC70470E20704700BFF0B583B097
:10C20000044600250DF107008DF80750FEF734F9BC
:10C21000D4E900311A688A4210D9511E1960216888
:10C22000A3680F6812F8015C0A79268AE068DB1BB4
:10C23000DBB29A4206FB050538BF0B719DF807007B
:10C24000FEF740F9284603B0F0BD00BF30B5054603
:10C2500083B000230DF107000C468DF80730FEF780
:10C260000BF92A681368591C1160E9682A8A641A54
:10C27000B4FBF2F41C709DF80700FEF723F903B03D
:10C2800030BD00BF826842B110B504464369016801
:10C29000006998470023A36010BD70470EB400B535
:10C2A00082B0039921B104AB01AA019300F0ACF86C
:10C2B00002B05DF804EB03B0704700BF2DE9F04F0A
:10C2C000164683B0B142DDE90C920F4605469A4608
:10C2D000C0F095800B464FF00108B3FBF6F39E4289
:10C2E00008F10108F9D9D04538BFD04612F0010352
:10C2F000019302D1B9F1000F5ED1AA68012403E0D5
:10C300000AF1FF3A06FB04F4BAF1010FF8D8B7FBC3
:10C31000F4F39E42F6D9DFF8ECA007E0B442B4FB98
:10C32000F6F31AD3AA681C46B7FBF3F31AF803B066
:10C33000BBF10A0F04FB137728D02B68511CA960AE
:10C3400003F802B0D5E901329A42E7D32846FFF755
:10C3500099FFB4FBF6F3B442E4D2019B9BB1B9F16F
:10C36000000F10D02024C84509F1FF390BD2AB686B
:10C370002A68591CA960D454D5E901329A4214D2D2
:10C38000B9F1000FEFD103B0BDE8F08F511C2B685D
:10C39000A9604FF00D019954D5E901329A42CCD3EE
:10C3A0002846FFF76FFFAA68C7E72846FFF76AFF2E
:10C3B000B9F1000FD7D1E6E793071AD42024AA6871
:10C3C000C84502F1010199D22B68A9609C54D5E9B6
:10C3D00001329A4209F1FF3903D2B9F1000FEFD1CE
:10C3E0008CE72846FFF74EFFAA68B9F1000FE7D1A6
:10C3F00084E7BAF1000F0CBF30242024DFE74FF0B0
:10C40000010870E78C890300002900F054822DE9AF
:10C41000F04FDFF8B8950C7885B0064690460D468B
:10C420004FF00D0A10E00A2CB36800F0AD803268BE
:10C43000591CB160D454D6E901329A4280F0A080F0
:10C440002C78002C00F087800135002C00F08380D0
:10C45000252CE8D1294600270D4611F8012B2D2A5D
:10C4600000F08880302A00F088802B2A7AD02A2A8F
:10C4700000F09980A2F13003092B4FF000040BD893
:10C4800004EB840402EB440415F8012FA2F13003FD
:10C49000092BA4F13004F3D92E2A00F09080002358
:10C4A00001E015F8012F02F0FB016829F9D0252AD7
:10C4B00000F07781583AD1B2202947D8202A45D8B0
:10C4C000DFE812F035014400440044004400440019
:10C4D000440044004400440044004301130144006C
:10C4E000440044004400130144004400440044005C
:10C4F00044004400D20044004400A20044009400E0
:10C5000044004400350101209842024638BF1A46D3
:10C510000292002C40F05081B80740F16E81002B50
:10C5200040F04E821C46BBF1000FC0F20A827A072F
:10C5300000F11A8207F00302022A00F0EA81CDE935
:10C54000004759460A223046FFF7B8FE01352C78DD
:10C55000002C7FF479AF337B002B40F01C8105B0B9
:10C56000BDE8F08F0D4611F8012B2D2A47F0040786
:10C570007FF478AF47F001076EE747F002076BE7FB
:10C580003046FFF77FFE5BE73268591CB16002F866
:10C5900003A0D6E901239342FFF449AF3046FFF7E9
:10C5A00071FEB36843E7D8F800301A1DC8F80020C0
:10C5B0006A781C682E2A05F101057FF470AF6A784D
:10C5C000A2F13003092B05F101054FF000033FF6FE
:10C5D0006AAF03EB830302EB430315F8012FA2F1CB
:10C5E00030010929A3F13003F3D95CE7D8F8002022
:10C5F000111DC8F8001011683046CDE900470A2225
:10C60000FFF75CFE0135A2E7D8F800301A1DC8F824
:10C61000002017F00107D3F800B040F0F080BBF124
:10C62000000F03D058460BF00BFF0746BC4240F208
:10C630004381002C00F04081202205E0BC4200F044
:10C640003B81002C00F03881B1683368481CB06031
:10C650005A54D6E90130984204F1FF34EED3304603
:10C66000FFF710FE2022E9E7D8F80020131DC8F8D4
:10C670000030B36831681768581C3022B060CA5463
:10C68000D6E90123934280F0EF803268581C78216C
:10C69000B060D154D6E901329A4280F0E0800F2F89
:10C6A00003D93B461B090F2BFCD84FF0805406E002
:10C6B0000F2C4FEA14137FF649AFB2681C46B7FB44
:10C6C000F4F319F803B0BBF10A0F04FB137754D04D
:10C6D0003368511CB16003F802B0D6E901329A42C6
:10C6E000E6D33046FFF7CEFDE2E7D8F80020111D73
:10C6F000C8F80010D2F800B08BEAEB72A2EBEB7234
:10C70000092A7FF700AFDFF8C8C20120114663296C
:10C71000ACFB02E200F101004FEAD202F6DC9842E3
:10C72000024638BF1A460292002C45D1F4E6D8F8EA
:10C730000020111DC8F8001011683046CDE90047EF
:10C740001022FFF7BBFD013501E7D8F800301A1DB4
:10C75000C8F800201C78B3680A2C00F011813268F8
:10C76000591CB160D454D6E901329A42FFF4EEAEBE
:10C770003046FFF787FD0135E9E63368511CB160AB
:10C7800003F802A0D6E901329A42A1D33046FFF75E
:10C7900079FDB2689CE7304605B0BDE8F04FFFF781
:10C7A00071BDB3683168581CB060CA54D6E9013213
:10C7B0009A42DDD20135CAE6BBF1000F59DB7A0798
:10C7C00057D4B80702D5002B3FF4ADAEF9073FF5BB
:10C7D000AAAE94B120220299A142BFF4A4AEB168DE
:10C7E000481CB06030684254D6E90101814204F12E
:10C7F000FF3480F0D480002CEDD1002493E69BF828
:10C800000030002B00F0E080B0685F46CBF1010201
:10C810000A2B02EB070B3CD0411CB16031680B5472
:10C82000D6E90130984226D217F8013F002BEFD10C
:10C830005C457FF68BAE202702E05C453FF486AE78
:10C84000B2683368511CB1609F54D6E901329A42F4
:10C8500004F1FF34F1D33046FFF714FDEDE7304625
:10C86000FFF710FDB2681AE73046FFF70BFDB3681B
:10C870000BE7013CA5E730460292FFF703FD17F8EE
:10C88000013F002BD4D0029AB0680A2B02EB070BB1
:10C89000C2D1411CB160316801F800A0D6E9011095
:10C8A0008842B9D33046CDE90232FFF7EBFCDDE92F
:10C8B0000232B068B0E770479BF80040002C3FF4AC
:10C8C00045AE0A2CB0680ED03368421CB2601C54CE
:10C8D000D6E90130984214D21BF8014F002C3FF4E6
:10C8E00035AE0A2CF0D13368421CB26003F800A0C8
:10C8F000D6E901309842E7D33046FFF7C3FCB06871
:10C90000E2E73046FFF7BEFC1BF8014F002CD8D100
:10C910001CE6002B7FF413AE8CB130220299A142A9
:10C92000BFF40DAEB168481CB06030684254D6E91F
:10C930000101814204F1FF343BD2002CEED10024EE
:10C94000FDE5B1684A1CB26032682D205054D6E92A
:10C9500001219142CBF1000BFFF4ECAD3046039383
:10C96000FFF790FC039BE5E5B1684A1CB2603268B2
:10C970002B205054D6E901219142FFF4DBADEDE7C5
:10C980003268591CB16002F803A0D6E90123934232
:10C99000FFF4E5AE3046FFF775FCB368DFE63046DE
:10C9A0000393FFF76FFC039B2022002C7FF413AF4F
:10C9B00023E730460393FFF765FC039B3022BCE777
:10C9C000F9073FF5B0AD18E79B4631E78C890300C6
:10C9D000CDCCCCCC10B582B040B10B46B9B1036020
:10C9E0001B68114602B0BDE8104018470A480B4CBE
:10C9F0000B4B0C4A0C49001BC0080E24000440F0ED
:10CA000001000094FBF708FA0E2002B010BD0248A6
:10CA1000024C034B054AEDE7C8AE030070AE0300BD
:10CA2000508B03009C890300A4890300D089030074
:10CA30002DE9F04182B0002858D0002A68D0D0F803
:10CA400000E0BEF1000F68D01D4673B34768D7F809
:10CA50000480B3FBF8F708FB1737002F37D18F0797
:10CA60003AD112F0030F3CD1C768B94211D2334812
:10CA7000334C344B344A3549001BC00810240004A1
:10CA800040F001000094FBF7C7F9204602B0BDE872
:10CA9000F08104694E1E3544A542E8D8DEF80C400A
:10CAA000A44602B0BDE8F04160472448244C254B21
:10CAB000274A2649001BC0080924000440F0010051
:10CAC0000094FBF7A9F9204602B0BDE8F0811B48AD
:10CAD0001B4C1C4B1F4AECE71848194C194B1E4ABB
